:100000000C94F83C0C94293D0C94293D0C94293D0A
:100010000C94293D0C947AB60C94293D0C94293DFE
:100020000C9480B90C94293D0C94293D0C949CA00F
:100030000C94293D0D94381B0C94293D0C94293DBA
:100040000C94293D0D9486570C94293D0C94293D20
:100050000C94293D0C94293D0D9444640D94E91CA5
:100060000C94293D0D9455840C94293D0C94293D04
:100070000C94293D0C94293D0C94293D0C94293D68
:100080000C94293D0C94293D0C94293D0C94293D58
:100090000D9411840C94293D0C94293D0C94293D18
:1000A0000C94293D0C94293D0C94293D0C94293D38
:1000B0000C94293D0C94293D0C94293D0C94293D28
:1000C0000C94293D0C94293D0C94293D0C94293D18
:1000D0000C94293D0C94293D0C94293D0C94293D08
:1000E0000C94293D16F026F02CF042F062F068F0F6
:1000F0006EF07EF08EF09EF0B9F0C20130014E013C
:10010000CC013C015E01A601DC012801D401B6014D
:1001100088018A014C015E01E001E601F60142011D
:100120009E01CA01BA01F001480174019201FE0169
:1001300056017C0196012A0194014801DA01C601A9
:100140005A01AC018C016801C0019C013801AE016B
:100150004A01A801D8017801F4013E015201E801E9
:10016000B8016601B0017A015001CE01E201A4019B
:10017000A401A4016C016C016C0170012C016C01E3
:10018000EC01084AD73B3BCE016E84BCBFFDC12FBA
:100190003D6C74319ABD56833DDA3D00C77F11BE78
:1001A000D9E4BB4C3E916BAAAABE000000803F057B
:1001B000A84CCDB2D44EB93836A9020C50B99186AC
:1001C00088083CA6AAAA2ABE000000803F07634216
:1001D00036B79BD8A71A39685618AEBAAB558C1DDE
:1001E0003CB7CC5763BD6DEDFD753EF6177231BF60
:1001F000000000803F08000000BE922449123EAB80
:10020000AAAA2ABECDCCCC4C3E00000080BEABAA30
:10021000AAAA3E00000000BF000000803F000000CE
:100220000000084178D3BB4387D1133D190E3CC36E
:10023000BD4282AD2B3E68EC8276BED98FE1A93EED
:100240004C80EFFFBE01C4FF7F3F000000000000B4
:100250000D94C7190D945F1C0D948D910D948F8A88
:100260000D94B9190D946D9E0D948E120D945777BF
:100270000D94F1440D94FB780D94B2190D942690D1
:100280000D9426800D94FA1B0D94F3370D9417816D
:100290000D94911C0D945D450D94DD190D94A819D4
:1002A0000D9441910D9442900D948D730D943C1CCE
:1002B0000D94FA8E0D94871C0D94138D0D94F019E6
:1002C0000D9469770D94A9720D945A790D94179134
:1002D0000D94B0440D9460770D9483910D94A08A91
:1002E0000D9472910D94251A0D94221C0D94C36FD8
:1002F0000D940B900D9432910D94461C0D947AA29E
:100300000D94AD920D94AF7B0D9444750D94A3782C
:100310000D94D5190D94D9190D94AA440D9448BE85
:100320000D943D8F0D942A1C0D94691C0D94501C46
:100330000D947B8F0D94283D0D94D4440D94FF1B98
:100340000D944E770D9415740D946F910D94BD1905
:100350000D94E88F0D946AA60D94A6440D9428453B
:100360000D9421910D94201A0D94161A0D94CF1905
:100370000D94F6900D940E1C0D946BA60D94968A18
:100380000D94B9440D94B6190D94888B0D947D1C71
:100390000D941C1A0D94041C0D94AC190D946991C4
:1003A0000D94888A0D94367B0D94CB190D944F8A49
:1003B0000D94F98F0D94731C0D94C1190D94419FE8
:1003C0000D94E3190D946C910D9455C10D94E7199A
:1003D0000D9458900D9469A60D9477910D948539DC
:1003E0000D94181C0D94EF4F0D941B900D94EB1968
:1003F0000D94B78E0D94B2920D94D5490D94321C84
:100400006E616E00696E66004E414E494E49545908
:10041000494E46CDCCCC3D0AD7233C17B7D13877CF
:10042000CC2B329595E6241FB14F0A0000204100E5
:1004300000C84200401C4620BCBE4CCA1B0E5AAE2F
:10044000C59D7400407A10F35A00A0724E1809003E
:1004500010A5D4E80000E87648170000E40B540229
:100460000000CA9A3B000000E1F505000080969864
:1004700000000040420F000000A0860100000010B4
:100480002700000000E803000000006400000000F6
:10049000000A00000000000100000000002C76D8D7
:1004A00088DC674F0823DFC1DFAE59E1B1B796E5BD
:1004B000E3E453C63AE651997696E8E6C28426EB21
:1004C000898C9B62ED407C6FFCEFBC9C9F40F2BA34
:1004D000A56FA5F490055A2AF75C936B6CF9676DCC
:1004E000C11BFCE0E40D47FEF520E6B500D0ED9021
:1004F0002E0300943577050080841E080000204EEE
:100500000A000000C80C333333330F986E12831186
:1005100041EF8D2114893BE65516CFFEE6DB18D15D
:10052000844B381BF77C1D901DA4BBE4242032842F
:10053000725E228100C9F124ECA1E53D27FFFF4551
:100540007874727564657200FFFF43686F6F73653E
:100550002065787472756465723A00FFFF436861C4
:100560006E676520737563636573732100FFFF4CCD
:100570006F6164696E6720636F6C6F7200FFFF4389
:100580006F6C6F72206E6F7420636F72726563742C
:1005900000FFFF46696C616D656E74206E6F74209C
:1005A0006C6F6164656400FFFF4368616E6765643A
:1005B00020636F72726563746C793F00FFFF616E38
:1005C0006420707265737320746865206B6E6F624F
:1005D00000FFFF496E736572742066696C616D651A
:1005E0006E7400FFFF506C656173652075706772F3
:1005F0006164652E00FFFF4E6577206669726D7736
:100600006172652076657273696F6E2061766169CB
:100610006C61626C653A00FFFF5344207072696E32
:1006200074696E6720627974652000FFFF57616905
:1006300074696E6720666F722050494E4441207085
:10064000726F626520636F6F6C696E6700FFFF43B6
:10065000726173682064657465637465642E2052EA
:100660006573756D65207072696E743F00FFFF439E
:10067000726173682064657465637465642E00FF3D
:10068000FF506C65617365206F70656E2069646CE6
:10069000657220616E642072656D6F766520666993
:1006A0006C616D656E74206D616E75616C6C792E18
:1006B00000FFFF5761732066696C616D656E742081
:1006C000756E6C6F616420737563636573736675B3
:1006D0006C3F00FFFF506C656173652070756C6C3A
:1006E000206F75742066696C616D656E7420696D2C
:1006F0006D6564696174656C7900FFFF556E6C6FA0
:100700006164696E672066696C616D656E7400FF77
:10071000FF5072657373206B6E6F6220746F207070
:10072000726568656174206E6F7A7A6C6520616E9F
:100730006420636F6E74696E75652E00FFFF506CE8
:100740006561736520707265737320746865206BD2
:100750006E6F6220746F20756E6C6F6164206669C5
:100760006C616D656E7400FFFF4D32303020496E54
:1007700076616C69642065787472756465722000B6
:10078000FFFF6F70656E00FFFF54524947474552A7
:10079000454400FFFF5265706F7274696E67206593
:1007A0006E6473746F702073746174757300FFFFEF
:1007B000456E642066696C65206C69737400FFFF88
:1007C000426567696E2066696C65206C69737400A8
:1007D000FFFF4E6F206D6F76652E00FFFF5761693A
:1007E0007420666F7220757365722E2E2E00FFFFC7
:1007F000426564206C6576656C696E672066616928
:100800006C65642E2053656E736F72207472696715
:10081000676572656420746F6F20686967682E2051
:1008200057616974696E6720666F722072657365BF
:10083000742E00FFFF426564206C6576656C696EFE
:1008400067206661696C65642E2053656E736F72F4
:1008500020646973636F6E6E6563746564206F7284
:10086000206361626C652062726F6B656E2E20572B
:10087000616974696E6720666F7220726573657452
:100880002E00FFFF537461626C6520616D626965C3
:100890006E742074656D7065726174757265203256
:1008A000312D323643206973206E6565646564209E
:1008B00061207269676964207374616E6420697372
:1008C0002072657175697265642E00FFFF506C655A
:1008D0006173652072756E2058595A2063616C6986
:1008E00062726174696F6E2066697273742E00FFA4
:1008F000FF536C6565702E2E2E00746D633231339C
:10090000305F7072696E745F63757272656E747356
:1009100028290A094809520A580925640925640A40
:10092000590925640925640A5A0925640925640AB8
:10093000450925640925640A0020436F756E7420FB
:10094000583A20004E6F7420696E206661726D20E7
:100950006D6F64652E004163746976652045787417
:1009600072756465723A2000496E76616C69642024
:10097000657874727564657200746D6332313330FA
:100980005F73675F7468725B25635D3D25640A0071
:100990005A204F666673657400556E6B6E6F776E86
:1009A00020636F6D6D616E643A2022007A5F6D6125
:1009B000783A20007A5F6D696E3A2000795F6D6148
:1009C000783A2000795F6D696E3A2000785F6D613A
:1009D000783A2000785F6D696E3A20000053494CE8
:1009E000454E54004E4F524D414C002553204D4F23
:1009F00044453A2050657263656E7420646F6E657D
:100A00003A2025643B207072696E742074696D65AC
:100A10002072656D61696E696E6720696E206D690F
:100A20006E733A2025640A0025643A2025640A0082
:100A30000A50494E44412074656D70657261747549
:100A400072653A20252E3166205A207368696674D3
:100A500020286D6D293A20252E3366000A537465CF
:100A6000703A2025642F360A000A537465703A20C4
:100A700025642F362028736B6970706564290A50CD
:100A8000494E44412074656D70657261747572657C
:100A90003A202564205A20736869667420286D6D99
:100AA000293A300A000A5A45524F3A20252E336619
:100AB0000A0073746172742074656D70657261747C
:100AC0007572653A20252E31660A0025642020259E
:100AD0002E326600255320583A20252E356620599F
:100AE0003A20252E3566205A3A20252E35660A00F2
:100AF0004E6F7420696E206661726D206D6F646543
:100B00002E0025640045303A25642052504D0A508D
:100B1000524E303A25642052504D0A00256400415F
:100B200075746F0020452F443D00416476616E630B
:100B300065204B3D0046696C616D656E7420736580
:100B40007474696E67733A2044697361626C65649A
:100B5000002020204D32303020440046696C616D09
:100B6000656E742073657474696E67733A00202033
:100B7000204D3230392053004175746F2D52657409
:100B8000726163743A20533D3020746F206469733E
:100B900061626C652C203120746F20696E746572FF
:100BA0007072657420657874727564652D6F6E6CF3
:100BB00079206D6F76657320617320726574726140
:100BC000637473206F72207265636F7665726965F6
:100BD00073002046002020204D3230382053005230
:100BE00065636F7665723A20533D45787472612073
:100BF0006C656E67746820286D6D2920463A5370C5
:100C000065656420286D6D2F6D2900205A002046EF
:100C1000002020204D32303720530052657472611D
:100C200063743A20533D4C656E67746820286D6D7F
:100C30002920463A537065656420286D6D2F6D2913
:100C4000205A3A205A4C69667420286D6D2900207C
:100C500044002049002020204D33303420500050E3
:100C600049442068656174626564207365747469C1
:100C70006E67733A002044002049002020204D3345
:100C800030312050005049442073657474696E6798
:100C9000733A00205A0020590020204D323036206F
:100CA0005800486F6D65206F666673657420286D07
:100CB0006D293A00204500205A0020590020580094
:100CC00020420020540020204D3230352053004176
:100CD0006476616E636564207661726961626C65D9
:100CE000733A20533D4D696E206665656472617488
:100CF0006520286D6D2F73292C20543D4D696E2081
:100D000074726176656C20666565647261746520D5
:100D1000286D6D2F73292C20423D6D696E696D75AC
:100D20006D207365676D656E742074696D6520282C
:100D30006D73292C20583D6D6178696D756D205853
:100D400059206A65726B20286D6D2F73292C202025
:100D50005A3D6D6178696D756D205A206A65726BB8
:100D600020286D6D2F73292C2020453D6D617869F9
:100D70006D756D2045206A65726B20286D6D2F732F
:100D8000290020540020204D32303420530041638C
:100D900063656C65726174696F6E3A20533D61637F
:100DA00063656C65726174696F6E2C20543D726569
:100DB000747261637420616363656C6572617469E8
:100DC0006F6E00204500205A0020590020204D322F
:100DD00030312058004D6178696D756D2041636335
:100DE000656C65726174696F6E20286D6D2F73324A
:100DF000293A00204500205A0020590020204D3279
:100E000030332058004D6178696D756D20666565D9
:100E100064726174657320286D6D2F73293A002008
:100E20004500205A0020590020204D39322058001A
:100E300053746570732070657220756E69743A0022
:100E400053657474696E67732053746F72656400C0
:100E5000504944204175746F74756E652066696EE3
:100E60006973686564212050757420746865206C0E
:100E7000617374204B702C204B6920616E64204B91
:100E80006420636F6E7374616E74732066726F6D2D
:100E90002061626F766520696E746F20436F6E66A5
:100EA000696775726174696F6E2E680050494420DD
:100EB0004175746F74756E65206661696C65642137
:100EC0002074696D656F75740020403A00543A00D3
:100ED000423A00504944204175746F74756E652024
:100EE0006661696C6564212054656D70657261741A
:100EF00075726520746F6F206869676800204B64A5
:100F00003A2000204B693A2000204B703A20002004
:100F1000436C617373696320504944200020547509
:100F20003A2000204B753A2000206D61783A20006D
:100F3000206D696E3A200020643A200020626961C9
:100F4000733A200020453A00205A3A0020593A00CE
:100F500020453A00205A3A0020593A00583A0000F9
:100F600020573A0020453A00543A005A30005A318E
:100F700000593000593100583000583100456E6436
:100F80002073746F70732064696167002E0044657C
:100F90006C6574696F6E206661696C65642C2046AF
:100FA000696C653A200046696C652064656C6574FF
:100FB00065643A002E004E6F7420534420707269AD
:100FC0006E74696E67005072696E74207361766525
:100FD00064005344207072696E742070617573658B
:100FE00064000A002F000A002F2F20616374696FCC
:100FF0006E3A63616E63656C0043524153485F43D0
:10100000414E43454C0043524153485F5245434F84
:101010005645520043524153485F5245434F56454F
:10102000520022283229005400496E76616C6964AE
:10103000205420636F64652E00556E6B6E6F776E63
:10104000204D20636F64653A202573200A006E6F7F
:101050002076616C696420636F6D6D616E64002C35
:1010600020002C20002C20006E2F61002C20002C52
:1010700020002C20006E2F61002F00503A00576195
:10108000697420666F722050494E44412074617229
:101090006765742074656D70657261747572653A08
:1010A000004D32323020532569004C414E472053C9
:1010B000454C20464F5243454400222831290030F8
:1010C000303030303030302D303030302D30303026
:1010D000302D303030302D30303030303030303016
:1010E0003030300020555549443A003100204558F1
:1010F0005452554445525F434F554E543A00507236
:10110000757361206933204D4B3300204D414348B6
:10111000494E455F545950453A00312E3000206207
:1011200061736564206F6E204D61726C696E20463C
:1011300049524D574152455F55524C3A687474704C
:10114000733A2F2F6769746875622E636F6D2F7005
:101150007275736133642F50727573612D466972B5
:101160006D776172652050524F544F434F4C5F561C
:10117000455253494F4E3A004649524D5741524508
:101180005F4E414D453A50727573612D4669726DDF
:101190007761726520004D31313320530020423A8F
:1011A0000020453A00543A0020413A0020503A00CD
:1011B0002042403A0020403A00202F003A002054BC
:1011C00000202F0020423A00202F006F6B20543A5D
:1011D000002569206D696E2C2025692073656300E8
:1011E000496E76616C6964204D20636F64653A20B6
:1011F0002573200A00556E6B6E6F776E2047206353
:101200006F64653A202573200A004D65736820627B
:101210006564206C6576656C696E67206E6F7420FE
:101220006163746976652E000A002020000A4D650E
:1012300061737572656420706F696E74733A000A29
:101240005A20736561726368206865696768743ADB
:1012500020002C004E756D20582C593A2000206D2E
:101260006963726F6E730045786365737369766541
:1012700020626564206C6576656C696E6720636FBB
:101280007272656374696F6E3A2000473238205776
:10129000300050494E44412070726F626520636196
:1012A0006C6962726174696F6E207374617274002C
:1012B000473238205730005345545F535445505FF0
:1012C00045005345545F574156455F4500544D43D3
:1012D0005F0043524153485F0073746172740A00A7
:1012E0001B5B333B31484C616E67756167652075E8
:1012F00070646174652E0000202D20496E76616C4B
:101300006964206578747275646572206E756D62AB
:1013100065722021001B5B324A1B5B313B31484F19
:10132000726967696E616C205072757361206933F0
:101330001B5B323B33485072757361205265736595
:101340006172636800466163746F7279205245531D
:101350004554005052555341334446570041756738
:10136000203237203230313800436F6D70696C6540
:10137000643A2000286E6F6E652C20646566617586
:101380006C7420636F6E666967290041756720324F
:101390003720323031382032333A34353A32320065
:1013A00020332E332E312D535056312D3834350AFB
:1013B000007374617274002055706C6F61642069F1
:1013C0006E2070726F677265737300205A3A002046
:1013D000593A0020583A004D363030004731204508
:1013E00033204632303000473120452D33204632FD
:1013F00030300043524153485F44455445435445BF
:101400004458590043524153485F4445544543545E
:101410004544590043524153485F44455445435461
:10142000454458004D3239005F5345435F4C414EAF
:101430004700000000000000000000000000000065
:10144000000000000000000000000000000000009C
:10145000000000000000000000000000000000008C
:10146000000000000000000000000000000000007C
:10147000000000000000000000000000000000006C
:103820000000000000000000FFFF5072757361206F
:103830006933204D4B332072656164792E00FFFFA0
:10384000426C61636B6F7574206F63637572726530
:10385000642E205265636F766572207072696E7493
:103860003F00FFFF5072696E7465722068617320BB
:103870006E6F74206265656E2063616C696272614F
:10388000746564207965742E20506C6561736520C1
:10389000666F6C6C6F7720746865206D616E756102
:1038A0006C2C206368617074657220466972737451
:1038B0002073746570732C2073656374696F6E2058
:1038C00043616C6962726174696F6E20666C6F77B8
:1038D0002E00FFFF4F6C642073657474696E67730C
:1038E00020666F756E642E2044656661756C742069
:1038F0005049442C20457374657073206574632EA1
:103900002077696C6C206265207365742E00FFFF60
:103910005761726E696E673A20626F7468207072C8
:10392000696E746572207479706520616E64206DB3
:103930006F74686572626F6172642074797065205B
:103940006368616E6765642E00FFFF5761726E6980
:103950006E673A207072696E746572207479706552
:10396000206368616E6765642E00FFFF5761726EA9
:10397000696E673A206D6F74686572626F61726418
:103980002074797065206368616E6765642E00FF3E
:10399000FF2020506C616E6E6572427566666572BE
:1039A00042797465733A2000FFFF204672656520F6
:1039B0004D656D6F72793A2000FFFF204C61737482
:1039C00020557064617465643A2000FFFF506F7782
:1039D0006572557000FFFF45787465726E616C20EA
:1039E00053504920666C6173682057323558323025
:1039F000434C206E6F7420726573706F6E64696ED5
:103A0000672E00FFFF6572726F72207772697469AA
:103A10006E6720746F2066696C6500FFFF656E64D9
:103A200073746F7073206869743A2000FFFF6F6BC6
:103A3000004372617368446574656374204449533C
:103A400041424C4544004372617368446574656348
:103A50007420454E41424C45442100207C20417554
:103A600074686F723A200020536F667477617265D4
:103A700020526573657400205761746368646F67D2
:103A8000205265736574002042726F776E206F75E7
:103A900074205265736574002045787465726E6198
:103AA0006C20526573657400446F6E652073617697
:103AB000696E672066696C652E00457872656D6574
:103AC000207370616E206F6620746865205A2076BE
:103AD000616C7565732100000040410000004000EA
:103AE00000E4420000004000005743000000400096
:103AF0000057430000C4420000E4420000C44200FA
:103B00000040410000C44200004041000042430028
:103B100000E4420000424300005743000042437764
:103B20003235783230636C5F63666D0A0077323508
:103B3000783230636C5F656E7465720A00062833F4
:103B4000D036C23E013F154132423B43F2443B4531
:103B5000F24622473B48F2493B4AF05898590C5AE2
:103B6000085B0C5C086110679B6E2271077208FF8E
:103B7000095A0D000EFF19045E0820642B6D322FC8
:103B8000FFFFFF426564206C6576656C696E672097
:103B90006661696C65642E2053656E736F72206474
:103BA00069646E7420747269676765722E2044655B
:103BB00062726973206F6E206E6F7A7A6C653F2037
:103BC00057616974696E6720666F722072657365EC
:103BD000742E00FFFF206F66203900FFFF4D6561E6
:103BE000737572696E67207265666572656E63656E
:103BF00020686569676874206F662063616C69621C
:103C0000726174696F6E20706F696E7400FFFF20BF
:103C1000636F6C6420657874727573696F6E207061
:103C2000726576656E7465640020746F6F206C6FCA
:103C30006E6720657874727573696F6E2070726537
:103C400076656E7465640022206661696C65643A0D
:103C5000204275666665722066756C6C21002200D4
:103C6000256920686F757273202569206D696E75EE
:103C70007465730054494D454F55543A004D3131E8
:103C8000300046756C6C205258204275666665722D
:103C900000504154393132355F696E69743A256498
:103CA0000A0070617439313235206E6F742072658C
:103CB00073706F6E64696E67202833292E0A007056
:103CC000617439313235206E6F7420726573706F94
:103CD0006E64696E67202832292E0A00706174397B
:103CE000313235206E6F7420726573706F6E646947
:103CF0006E67202831292E0A00FFFF656E717565F9
:103D0000696E67202200FFFF53544F505045442EE8
:103D10002000FFFF5072696E7465722073746F70BB
:103D20007065642064756520746F206572726F72AF
:103D3000732E2046697820746865206572726F72F0
:103D400020616E6420757365204D39393920746F98
:103D500020726573746172742E202854656D7065CD
:103D60007261747572652069732072657365742E53
:103D700020536574206974206166746572207265D1
:103D80007374617274696E672900FFFF4E6F204380
:103D90006865636B73756D2077697468206C696EF4
:103DA00065206E756D6265722C204C617374204CB9
:103DB000696E653A2000FFFF636865636B73756D1C
:103DC000206D69736D617463682C204C617374207D
:103DD0004C696E653A2000446F6E65207072696EA2
:103DE00074696E672066696C65004E6F204C696E61
:103DF00065204E756D62657220776974682063680E
:103E000065636B73756D2C204C617374204C696E07
:103E1000653A20004C696E65204E756D62657220B2
:103E20006973206E6F74204C617374204C696E65E9
:103E3000204E756D6265722B312C204C617374209D
:103E40004C696E653A20005A206C69766520616481
:103E50006A757374206F7574206F662072616E6767
:103E6000652E2053657474696E6720746F20302E40
:103E700020436C69636B20746F20636F6E74696E8E
:103E800075652E005A206C6976652061646A7573C9
:103E900074206F7574206F662072616E67652E20C6
:103EA00053657474696E6720746F20300020423A45
:103EB0000020453A00543A00494E5434007265637C
:103EC0006F7665725F6D616368696E655F7374615B
:103ED00074655F61667465725F706F7765725F703D
:103EE000616E69632C20696E697469616C2000726F
:103EF00065636F7665725F6D616368696E655F7338
:103F0000746174655F61667465725F706F77657206
:103F10005F70616E69632C20696E697469616C20E1
:103F2000004739322045004D3234004D323620539F
:103F3000256C75004D3130362053004D3832004726
:103F400031204625640047312045322A312046344D
:103F50003830004731205A002046323030300020BF
:103F6000590047312058004D383300506F73697441
:103F7000696F6E20726561642066726F6D20656581
:103F800070726F6D3A004D3233202573002E6763D7
:103F90006F0046656564726174653A00473120457B
:103FA0002D31204634383000473120453520463108
:103FB0003230004D3833004D313930205325640004
:103FC0004D3130392053256400473238205820596C
:103FD000004731205A323520463830300062757340
:103FE000793A2070617573656420666F7220696E1E
:103FF00070757400627573793A20706175736564C9
:1040000020666F72207573657200627573793A204D
:1040100070726F63657373696E6700204600473185
:10402000205A0020460047312045004D3833006FAC
:104030006B0A0000002110422063308440A550C666
:1040400060E770088129914AA16BB18CC1ADD1CED6
:10405000E1EFF13112100273325222B5529442F75D
:1040600072D662399318837BB35AA3BDD39CC3FF26
:10407000F3DEE36224433420040114E664C774A42D
:104080004485546AA54BB528850995EEE5CFF5AC76
:10409000C58DD55336722611163006D776F666953D
:1040A00056B4465BB77AA719973887DFF7FEE79DC6
:1040B000D7BCC7C448E5588668A77840086118028D
:1040C000282338CCC9EDD98EE9AFF9488969990A16
:1040D000A92BB9F55AD44AB77A966A711A500A339D
:1040E0003A122AFDDBDCCBBFFB9EEB799B588B3B66
:1040F000BB1AABA66C877CE44CC55C222C033C60ED
:104100000C411CAEED8FFDECCDCDDD2AAD0BBD68B5
:104110008D499D977EB66ED55EF44E133E322E517C
:104120001E700E9FFFBEEFDDDFFCCF1BBF3AAF5905
:104130009F788F8891A981CAB1EBA10CD12DC14E76
:10414000F16FE18010A100C230E320045025404609
:10415000706760B9839893FBA3DAB33DC31CD37F28
:10416000E35EF3B1029012F322D232354214527759
:10417000625672EAB5CBA5A89589856EF54FE52CF8
:10418000D50DC5E234C324A01481046674476424A9
:10419000540544DBA7FAB79987B8975FE77EF71D08
:1041A000C73CD7D326F2369106B0165766767615F9
:1041B0004634564CD96DC90EF92FE9C899E9898A58
:1041C000B9ABA94458654806782768C018E1088249
:1041D00038A3287DCB5CDB3FEB1EFBF98BD89BBB68
:1041E000AB9ABB754A545A376A167AF10AD01AB399
:1041F0002A923A2EFD0FED6CDD4DCDAABD8BADE8B8
:104200009DC98D267C076C645C454CA23C832CE0E8
:104210001CC10C1FEF3EFF5DCF7CDF9BAFBABFD947
:104220008FF89F176E367E554E745E932EB23ED138
:104230000EF01E7C3C3E5E2B3D3F2F5B5D3B2C2AEF
:10424000225C0055564C4F202D20656E642025645D
:104250000A007374707325640A00776F726C6420AF
:10426000636F6F7264696E617465733A2028252EDE
:1042700033662C20252E33662C20252E3366290A02
:1042800000706879736963616C20636F6F72646931
:104290006E617465733A2028252E33662C20252EF6
:1042A00033662C20252E3366290A00437572726509
:1042B0006E7420706F73205A5F415849533A252E0F
:1042C00033660A43757272656E7420706F73204591
:1042D0005F415849533A252E33660A00416674659A
:1042E000722077616974696E6720666F72207465E9
:1042F0006D703A0A43757272656E7420706F732028
:10430000585F415849533A252E33660A43757272F5
:10431000656E7420706F7320595F415849533A2578
:104320002E33660A00FFFF5265636F766572696E11
:1043300067207072696E742020202000FFFF58599A
:104340005A2063616C6962726174696F6E20616C7E
:104350006C2072696768742E20536B6577207769CB
:104360006C6C20626520636F727265637465642093
:104370006175746F6D61746963616C6C792E00FF97
:10438000FF58595A2063616C6962726174696F6E7B
:1043900020616C6C2072696768742E20582F592038
:1043A000617865732061726520736C696768746CED
:1043B0007920736B657765642E20476F6F64206A80
:1043C0006F622100FFFF58595A2063616C69627265
:1043D0006174696F6E206F6B2E20582F59206178A1
:1043E0006573206172652070657270656E646963C3
:1043F000756C61722E20436F6E67726174756C61AB
:1044000074696F6E732100FFFF58595A2063616C05
:104410006962726174696F6E20636F6D70726F6D27
:10442000697365642E204C6566742066726F6E74C5
:104430002063616C6962726174696F6E20706F696C
:104440006E74206E6F7420726561636861626C6562
:104450002E00FFFF58595A2063616C6962726174C3
:10446000696F6E20636F6D70726F6D697365642E16
:104470002046726F6E742063616C69627261746948
:104480006F6E20706F696E7473206E6F742072652A
:1044900061636861626C652E00FFFF58595A2063A2
:1044A000616C6962726174696F6E206661696C65C6
:1044B000642E204C6566742066726F6E7420636192
:1044C0006C6962726174696F6E20706F696E7420BE
:1044D0006E6F7420726561636861626C652E00FFA7
:1044E000FF58595A2063616C6962726174696F6E1A
:1044F000206661696C65642E2046726F6E7420635D
:10450000616C6962726174696F6E20706F696E743C
:1045100073206E6F7420726561636861626C652ED2
:1045200000FFFF58595A2063616C696272617469B7
:104530006F6E206661696C65642E20506C656173D6
:104540006520636F6E73756C7420746865206D618F
:104550006E75616C2E00FFFF58595A2063616C69BB
:1045600062726174696F6E206661696C65642E2089
:104570004265642063616C6962726174696F6E2068
:10458000706F696E7420776173206E6F7420666F30
:10459000756E642E00FFFF506C6561736520706C52
:1045A00061636520737465656C207368656574204C
:1045B0006F6E20686561746265642E00FFFF436161
:1045C0006C6962726174696E67205A00FFFF44690A
:1045D0007374616E6365206265747765656E2074BF
:1045E0006970206F6620746865206E6F7A7A6C65DA
:1045F00020616E6420746865206265642073757242
:104600006661636520686173206E6F742062656502
:104610006E20736574207965742E20506C6561730B
:104620006520666F6C6C6F7720746865206D616EB5
:1046300075616C2C206368617074657220466972C4
:1046400073742073746570732C2073656374696F61
:104650006E204669727374206C61796572206361A3
:104660006C6962726174696F6E2E00FFFF206F6665
:10467000203400FFFF536561726368696E672062D2
:1046800065642063616C6962726174696F6E207029
:104690006F696E7400FFFF506C6163652061207369
:1046A00068656574206F6620706170657220756E34
:1046B00064657220746865206E6F7A7A6C65206418
:1046C0007572696E67207468652063616C696272D7
:1046D0006174696F6E206F6620666972737420342E
:1046E00020706F696E74732E20496620746865208F
:1046F0006E6F7A7A6C652063617463686573207489
:1047000068652070617065722C20706F776572200B
:104710006F666620746865207072696E74657220B9
:10472000696D6D6564696174656C792E00FFFF5079
:104730006C6561736520636C65616E2074686520CB
:104740006E6F7A7A6C6520666F722063616C696245
:10475000726174696F6E2E20436C69636B20776899
:10476000656E20646F6E652E00FFFF506C6561738F
:10477000652072656D6F766520737465656C207356
:10478000686565742066726F6D2068656174626526
:10479000642E00FFFF497320737465656C20736895
:1047A000656574206F6E20686561746265643F00A2
:1047B000FFFF4175746F20686F6D650078797A63CB
:1047C000616C5F6D656173737572655F656E74654D
:1047D000720A0078797A63616C5F73706972616CD8
:1047E000382063783D25642063793D2564207A3044
:1047F0003D256420647A3D25642072616469757387
:104800003D25642061643D25640A0078797A6361FE
:104810006C5F7365617263685A206E6F207369679D
:104820006E616C0A20783D256C6420793D256C64AE
:10483000207A3D256C640A00204F4E2D5349474E87
:10484000414C20617420783D256420793D25642009
:104850007A3D25642061643D25640A0078797A6395
:10486000616C5F7365617263685A20783D256C6482
:1048700020793D256C64207A3D256C640A000A008D
:10488000253032780078797A63616C5F7363616E8A
:104890005F706978656C735F333278333220637888
:1048A0003D25642063793D2564206D696E5F7A3D06
:1048B0002564206D61785F7A3D25640A00202532E9
:1048C000642025640A000A002530327800206D69D2
:1048D0006E3D2564206D61783D2564206469663DE8
:1048E00025640A006D61785F633D253264206D6147
:1048F000785F6C3D25640A006D61785F633D2564D7
:10490000206D61785F723D2564206D61785F6D6117
:104910007463683D25640A0020783D256420793D54
:104920002564207A3D25640A0020706174746572E4
:104930006E20666F756E6420617420256420256486
:104940000A000000F000F801FC03FE07FE07FE0766
:10495000FE07FC03F801F000000073697A656F66DA
:1049600028746F74616C293D25640A0073697A6547
:104970006F6628626C6F636B5F627566666572292D
:104980003D25640A0078797A63616C5F6D656173B7
:10499000737572655F6C656176650A00706F696E2C
:1049A000743D256420783D256420793D2564207A76
:1049B0003D25640A0058025802584D584DB004F085
:1049C00055F055B00478797A63616C5F66696E64FE
:1049D0005F6265645F696E64756374696F6E5F734F
:1049E000656E736F725F706F696E745F787920782F
:1049F0003D256C6420793D256C64207A3D256C64EE
:104A00000A00203C20005741524E494E473A20466A
:104A1000726F6E7420706F696E74206E6F74207286
:104A20006561636861626C652E205920636F6F72E7
:104A300064696E6174653A0000000040410000C086
:104A40004000005C430000C04000005C43000046A2
:104A50004300004041000046434974657261746937
:104A60006F6E3A200000007F43008058439AD9516E
:104A700043FFFFFF43616C6962726174696F6E206E
:104A80006661696C65642120436865636B207468A6
:104A900065206178657320616E642072756E206197
:104AA0006761696E2E004E4F524D414C0053544584
:104AB000414C544800746D63323133305F696E6924
:104AC0007428292C206D6F64653D25530A00544DD0
:104AD0004320445249564552204F56455254454D65
:104AE0005000746D63323133305F7365745F63758A
:104AF0007272656E745F6828617869733D25642CF5
:104B00002063757272656E743D25640A00746D636E
:104B1000323133305F7365745F63757272656E74C2
:104B20005F7228617869733D25642C206375727209
:104B3000656E743D25640A00746D63323133305FF5
:104B4000686F6D655F656E74657228617865735F07
:104B50006D61736B3D307825303278290A00746DB1
:104B600063323133305F686F6D655F6578697420DB
:104B7000746D63323133305F73675F686F6D696E78
:104B8000675F617865735F6D61736B3D3078253069
:104B900032780A00726573756C742076616C756585
:104BA0003A2025640A0020693D25326420636E7432
:104BB0003D2532642076616C3D2532640A00636CC9
:104BC0007573746572733A0A0020693D253264205A
:104BD000737465703D2532640A00736F7274656486
:104BE0002073616D706C65733A0A001B5B303B305B
:104BF000484E6F7A7A6C652046414E3A20253464DF
:104C00002052504D0A5072696E742046414E3A202F
:104C1000202534642052504D0A46696C2E20586479
:104C20003A2533642059643A2533640A496E743A4C
:104C3000202533642020536875743A202533640A94
:104C4000001B5B303B3048546F74616C20666169B7
:104C50006C757265731B5B313B3148506F776572C1
:104C6000206661696C757265732020252D33641B85
:104C70005B323B314846696C616D2E2072756E6FF8
:104C80007574732020252D33641B5B333B314843FF
:104C90007261736820205820252D3364202059200C
:104CA000252D3364001B5B303B30484C617374200E
:104CB0007072696E74206661696C757265731B5BD6
:104CC000313B3148506F776572206661696C75724F
:104CD00065732020252D33641B5B323B31484669C8
:104CE0006C616D2E2072756E6F7574732020252D8A
:104CF00033641B5B333B3148437261736820205837
:104D000020252D336420205920252D336400546F35
:104D100074616C004C617374207072696E74001B56
:104D20005B323B3148416D6269656E743A202025E3
:104D30006425631B5B333B314850494E44413A2064
:104D400020202025642563001B5B303B31484E6FDB
:104D50007A7A6C653A202020256425631B5B313B01
:104D600031484265643A20202020202025642563B4
:104D7000001B5B313B31485057523A202020202005
:104D80002025642E2530316456001B5B303B3148B2
:104D900042656C74207374617475731B5B313B32B4
:104DA00048582025641B5B323B324859202564005B
:104DB0006E6F7A7A6C65202D20203235302F3000CE
:104DC000464C4558202D20203234302F35300050AD
:104DD000502020202D20203235342F313030004813
:104DE000495053202D20203232302F3130300041B5
:104DF000425320202D20203235352F3130300050C5
:104E0000455420202D20203233302F383500504C8F
:104E10004120202D20203231352F363000414253A1
:104E2000202020202D20203235352F313030006ECB
:104E30006F7A7A6C65202D20203235302F30006655
:104E400061726D2020202D20203235302F36300029
:104E50002D2D2D2D2D2D2D2D2D2D2D2D00466C6123
:104E6000736841697220495020416464723A002D90
:104E70002D2D2D2D2D2D2D2D2D2D2D004175672006
:104E800032372032303138002D2D2D2D2D2D2D2D66
:104E90002D2D2D2D00453344763666756C6C0045FE
:104EA000494E53795F31306100315F37356D6D5F49
:104EB0004D4B33002D2D2D2D2D2D2D2D2D2D2D2D0B
:104EC00000207265706F20556E6B6E6F776E0020DC
:104ED000332E332E312D535056312D383435004674
:104EE00069726D776172653A0025642E25642E25FE
:104EF000642E256400FFFF436F6F6C646F776E0054
:104F0000FFFF566F6C746167657300FFFF54656D3A
:104F100070657261747572657300FFFF42656C7431
:104F20002073746174757300FFFF45787472756443
:104F3000657220696E666F00FFFF58595A206361E1
:104F40006C2E2064657461696C7300FFFF446174AA
:104F5000653A00FFFF686F77746F2E70727573612A
:104F600033642E636F6D00FFFF666F72756D2E7078
:104F70007275736133642E636F6D00FFFF7072751D
:104F8000736133642E636F6D00FFFF57616974694D
:104F90006E6720666F72206E6F7A7A6C6520616E24
:104FA000642062656420636F6F6C696E6700FFFF49
:104FB00053656C662074657374204F4B00FFFF537C
:104FC000656C66207465737420737461727420203C
:104FD00000FFFF46696C616D656E742073656E73CA
:104FE0006F7200FFFF5377617070656400FFFF46CA
:104FF000726F6E742F6C6566742066616E7300FF4D
:10500000FF4178697300FFFF41786973206C656E1A
:1050100067746800FFFF4C6F6F73652070756C6C70
:10502000657900FFFF456E6473746F70206E6F7456
:105030002068697400FFFF456E6473746F7000FF31
:10504000FF4D6F746F7200FFFF456E6473746F7075
:105050007300FFFF576972696E67206572726F7225
:1050600000FFFF426564202F20486561746572006F
:10507000FFFF4E6F7420636F6E6E6563746564002E
:10508000FFFF4865617465722F546865726D6973BE
:10509000746F7200FFFF506C656173652063686513
:1050A000636B203A00FFFF53656C66746573742070
:1050B0006572726F72202100FFFF46696C616D6539
:1050C0006E742073656E736F723A00FFFF507269E1
:1050D0006E742066616E3A00FFFF457874727564E5
:1050E00065722066616E3A00FFFF53656C667465F9
:1050F0007374206661696C6564202000FFFF416C59
:105100006C20636F72726563742020202020200061
:10511000FFFF436865636B696E672073656E736F2D
:1051200072732000FFFF436865636B696E672062DE
:105130006564202020202000FFFF436865636B69C1
:105140006E67205A2061786973202000FFFF436852
:1051500065636B696E672059206178697320200050
:10516000FFFF436865636B696E672058206178694B
:1051700073202000FFFF436865636B696E672068DA
:105180006F74656E64202000FFFF436865636B6980
:105190006E6720656E6473746F7073006C63645F18
:1051A00073656C66636865636B5F617869732025FE
:1051B000642C2025640A004D3834004731205A31D0
:1051C00035204631303030004732382057002563D3
:1051D0002041584953205347313D25640A002D2D65
:1051E0002D2D2D2D2D2D2D2D2D2D2D2D2D2D2D2DEF
:1051F0002D2D0043616C6962726174696E6720686D
:105200006F6D650041786973206C656E6774682006
:10521000646966666572656E63653A252E33660A53
:10522000004D656173757265642061786973206CE7
:10523000656E6774683A252E33660A00FFFF436186
:105240006E6E6F7420656E7465722073756264692A
:10525000723A2000FFFF53442063617264206F6B39
:1052600000FFFF6F70656E526F6F74206661696C2E
:10527000656400FFFF766F6C756D652E696E6974ED
:10528000206661696C656400FFFF534420696E69A4
:1052900074206661696C00FFFF536F7274696E67FA
:1052A0002066696C657300FFFF536F6D652066694A
:1052B0006C65732077696C6C206E6F74206265205A
:1052C000736F727465642E204D61782E204E6F2EA0
:1052D000206F662066696C657320696E20312066D8
:1052E0006F6C64657220666F7220736F7274696E82
:1052F00067206973203130302E00FFFF57726974C8
:10530000696E6720746F2066696C653A2000FFFF44
:1053100046696C652073656C656374656400FFFFA6
:1053200046696C65206F70656E65643A2000FFFF0A
:105330006F70656E206661696C65642C2046696CCF
:10534000653A20002E002E002E004E6F77206672E8
:105350006573682066696C653A20004E6F7720643B
:105360006F696E672066696C653A20002220706F55
:1053700073002220706172656E743A2200535542A8
:10538000524F5554494E452043414C4C2074617254
:105390006765743A2200747279696E6720746F20B1
:1053A00063616C6C207375622D67636F6465206642
:1053B000696C6573207769746820746F6F206D6104
:1053C0006E79206C6576656C732E204D4158206C8B
:1053D0006576656C2069733A002053697A653A20D6
:1053E00000FFFF43757272656E7400FFFF557365B1
:1053F0006420647572696E67207072696E7400FF54
:10540000FF5049442063616C2E2066696E697368A1
:10541000656400FFFF5049442063616C2E2020200A
:10542000202020202020202000FFFF4D3131372078
:105430004669727374206C617965722063616C2EA9
:1054400000FFFF526573756D696E67207072696E3B
:105450007400FFFF5072696E74207061757365642B
:1054600000496E76616C6964205049442063616C28
:105470002E20726573756C74732E204E6F742073BA
:10548000746F72656420746F20454550524F4D2EE5
:10549000004D353030004731205A31352046313506
:1054A00030300047393100473120583530205931EC
:1054B0003930204530204637303030004739300011
:1054C0004D373032004D3730322043004D373032C7
:1054D0002055004D373032004731205A31352046B3
:1054E00031353030004739310047312058353020D0
:1054F00059313930204530204637303030004D3872
:105500003300473930004D3834004D3130342053AA
:1055100030004D383400473120583130205931386F
:1055200030204634303030004731205A3130204668
:10553000313330302E303030004D31343020533064
:10554000004D313034205330004D31303700473179
:1055500020452D302E303735303020463231303036
:105560002E3030303030004731205835302059351A
:10557000352045332E363237373300473120583205
:105580003030205935352045302E34393338360007
:1055900047312058323030205937352045332E36A8
:1055A00032373733004731205835302059373520CE
:1055B00045302E34393338360047312058353020C5
:1055C0005939352045332E363237373300473120AD
:1055D00058323030205939352045302E343933385F
:1055E000360047312058323030205931313520458E
:1055F000332E363237373300473120583530205973
:105600003131352045302E3439333836004731209A
:1056100058353020593133352045332E363237371F
:10562000330047312058323030205931333520454E
:10563000302E363631373400473120583230302062
:10564000593135352045322E363237373300473120
:10565000205831303020593135352045320047311E
:105660002058373520593135352045322E35004701
:1056700031204631303830004731205835302059FC
:10568000313535004731204634303030004D32302E
:1056900034205331303030004731205A302E3135EC
:1056A000302046373230302E303030004731204500
:1056B0002D312E35303030302046323130302E30E2
:1056C00030303030004D3833004739300047323108
:1056D000004739322045302E3000473120583130D4
:1056E000302E30204531322E352046313030302EAC
:1056F00030004731205836302E302045392E3020AA
:1057000046313030302E30004739322045302E308F
:1057100000473238004D3130392053323135004D99
:1057200031393020533630004D313430205336304B
:10573000004D3130342053323135004D3130370097
:10574000473930004731204531004D38320047316C
:10575000204531004D3833004D313036205325641B
:10576000004D32323020532564002520002D2D2D90
:1057700000202000534400555342002D2D3A2D2D7A
:105780002020002020003A2000202020202020205F
:1057900020202020202020202020202000203A200F
:1057A0000020202020202020202020202020202019
:1057B0002020202020002020202020202020202009
:1057C00020202000257300200020004C0020200015
:1057D000204600252020202020002020002020001E
:1057E0000120002020202D2D2D200020205A0020D7
:1057F0002000012000FFFF50494E444120486561D0
:1058000074696E6700FFFF54656D702E2063616CD4
:105810002E2020202020202020202000FFFF436178
:105820006C6962726174696F6E20646F6E6500FFEF
:10583000FF42656420646F6E6500FFFF426564206F
:1058400048656174696E6700FFFF48656174696E41
:105850006720646F6E652E00FFFF48656174696E96
:105860006700FFFF436F70792073656C6563746533
:1058700064206C616E67756167652066726F6D206C
:1058800058464C4153483F00FFFF4572726F7220EB
:105890002D20737461746963206D656D6F7279205A
:1058A000686173206265656E206F766572777269D4
:1058B0007474656E00FFFF436172642072656D6FE2
:1058C00076656400FFFF4361726420696E736572E0
:1058D000746564002079303D25640A002078303DED
:1058E00025640A004F4B0A004552524F5220616412
:1058F0003D25640A002020207A303D25640A0020DE
:105900007A303D25640A002079303D25640A002064
:1059100078303D25640A0078797A63616C5F666946
:105920006E645F706F696E745F63656E746572320A
:105930000A0000002100240027002A002D0030006A
:10594000330001010000040107010A0100002000EA
:105950002300260029002C002F0032000001000047
:1059600003010601090100000A0B02090C0D0E08D3
:105970000703040100000000000000000000000018
:105980000000000000000000000000000000000017
:1059900000001211100000000000000000000000D4
:1059A00000000000000000000000000000000000F7
:1059B000000000000000000000000000332E332E25
:1059C000312D53505631007263006265746100617D
:1059D0006C706861006465760078797A63616C5FE9
:1059E00073706972616C322063783D25642063793D
:1059F0003D2564207A303D256420647A3D2564206D
:105A00007261646975733D25642061643D25640A93
:105A100000746D63323133305F676F746F5F73741E
:105A20006570202564202564202564202564200AD3
:105A30000020666163746F723A2025730A00746DEA
:105A400063323133305F7365745F7761766520252B
:105A500068686420256868640A0001021020200834
:105A600008102040102040800201020108040201B9
:105A70000102040810204080804020100804020128
:105A80008004020180402010080402010804020181
:105A90000102040810204080010204081020408008
:105AA000100804088010204004408010204004802A
:105AB00000002200250028002B002E0031003400B9
:105AC00002010000050108010B0105050505070598
:105AD00008080808020202020A0A0808040404046A
:105AE0000101010101010101030303030303030396
:105AF000040707070C0C0C0C0C0C0C0C0202020225
:105B000006060606060606060B0B0B0B0B0B0B0B0D
:105B100007070A0A0A0A0A0A050505040404080810
:105B20000222206661696C65643A2042756666658A
:105B3000722066756C6C2100456E717565696E67C3
:105B400020746F207468652066726F6E743A20222C
:105B5000004572726F723A002200456E7175656978
:105B60006E6720746F207468652066726F6E743A79
:105B70002022004D3234004D3233202573006175F0
:105B8000746F25692E6700FFFF5072656865617448
:105B900020746865206E6F7A7A6C652100FFFF457E
:105BA00052524F523A00FFFF537570706F7274007B
:105BB000FFFF53746174697374696373202000FF7D
:105BC000FF43616C6962726174696F6E00FFFF551B
:105BD0006E6C6F61642066696C616D656E7400FF48
:105BE000FF4C6F61642066696C616D656E7400FFC7
:105BF000FF4175746F4C6F61642066696C616D65FF
:105C00006E7400FFFF4E6F20534420636172640086
:105C1000FFFF526573756D65207072696E7400FFC9
:105C2000FF5061757365207072696E7400FFFF50DC
:105C300072656865617400FFFF54756E6500FFFF53
:105C40004C6976652061646A757374205A00FFFFA1
:105C5000496E666F2073637265656E00FFFF46696B
:105C60006E697368696E67206D6F76656D656E74B9
:105C70007300FFFF4372617368206465742E2020F7
:105C80005B4E2F415D00FFFF4372617368206465C6
:105C9000742E2020205B6F6E5D00FFFF43726173E6
:105CA00068206465742E20205B6F66665D00FFFFD0
:105CB0004D6F6465202020205B537465616C7468AF
:105CC0005D00FFFF4D6F646520202020205B4E6F3C
:105CD000726D616C5D00FFFF46696C2E2073656E0E
:105CE000736F7220205B6F6E5D00FFFF46696C2E44
:105CF0002073656E736F72205B6F66665D00FFFFD9
:105D00004368616E67652066696C616D656E7400DD
:105D1000FFFF466C6F7700FFFF466C6F7700FFFF59
:105D2000537065656400FFFF537065656400FFFF95
:105D300046616E20737065656400FFFF4265640014
:105D4000FFFF4E6F7A7A6C6500FFFF5365747469CC
:105D50006E6773004D373031004661696C20737493
:105D6000617473004661726D206E756D62657200BC
:105D70004D3630300053746F7265642073657474EF
:105D8000696E677320726574726965766564006513
:105D900063686F3A00FFFF5365742074656D70652A
:105DA0007261747572653A00FFFF54656D706572BB
:105DB00061747572652063616C6962726174696F88
:105DC0006E206661696C656400FFFF54656D7065E7
:105DD0007261747572652063616C69627261746965
:105DE0006F6E2069732066696E69736865642061EF
:105DF0006E64206163746976652E2054656D702E23
:105E00002063616C6962726174696F6E2063616E98
:105E10002062652064697361626C656420696E202C
:105E20006D656E752053657474696E67732D3E548D
:105E3000656D702E2063616C2E0020003E003E00D8
:105E400020003E003E0054656D706572617475728D
:105E5000652063616C6962726174696F6E2066614E
:105E6000696C65642E20436F6E74696E756520776A
:105E7000697468207072657373696E6720746865F1
:105E8000206B6E6F622E0054656D70657261747563
:105E900072652063616C6962726174696F6E2064FF
:105EA0006F6E652E20436F6E74696E75652077691D
:105EB0007468207072657373696E672074686520FA
:105EC0006B6E6F622E004739390044697361626CF2
:105ED00065206661726D206D6F64653F004661727A
:105EE0006D206E756D6265720044697361626C65E8
:105EF000206661726D206D6F6465004D383400FF5F
:105F0000FF536F72743A2020202020205B4E6F6E6A
:105F1000655D00FFFF536F72743A20205B416C7027
:105F200068616265745D00FFFF536F72743A2020F0
:105F3000202020205B54696D655D00FFFF534420E5
:105F40006361726420205B6E6F726D616C5D00FF37
:105F5000FF53442063617264205B466C736841693F
:105F6000725D00FFFF53656C656374206C616E6742
:105F70007561676500FFFF52506920706F72742071
:105F8000202020205B6F6E5D00FFFF525069207063
:105F90006F7274202020205B6F66665D00FFFF54E7
:105FA000656D702E2063616C2E2020205B6F6E5D0E
:105FB00000FFFF54656D702E2063616C2E20205B06
:105FC0006F66665D00FFFF452D636F7272656374D7
:105FD00000FFFF452D636F727265637400FFFF5A07
:105FE0002D636F727265637400FFFF5A2D636F72C9
:105FF0007265637400FFFF592D636F72726563747D
:1060000000FFFF592D636F727265637400FFFF58C4
:106010002D636F727265637400FFFF582D636F729A
:106020007265637400FFFF46616E73206368656389
:106030006B20205B6F66665D00FFFF46616E73201C
:10604000636865636B2020205B6F6E5D00FFFF4619
:106050002E206175746F6C6F6164205B6F66665D86
:1060600000FFFF462E206175746F6C6F6164202005
:106070005B6F6E5D00FFFF462E206175746F6C6F65
:106080006164205B4E2F415D00FFFF46696C2E204E
:1060900073656E736F72205B4E2F415D00FFFF448E
:1060A000697361626C6520737465707065727300EA
:1060B000FFFF4D6F7665206178697300FFFF5465BF
:1060C0006D70657261747572650024F4D43050C3CC
:1060D0008E20C2A24017828B7011127A910D816CB2
:1060E000D90AA861E108C7586607615143061E4BEB
:1060F0005D05C145A7041A411104093D9803713992
:1061000031034036DB0265339102D4305402802ED5
:106110001D02632CEE01752AC501B028A0011027CD
:1061200081018F2564012B244B01E0223401AC2135
:106130001F018D200D01801FFC00841EED00971DA6
:10614000DF00B81CD200E61BC600201BBC00641A8E
:10615000B200B219A8000A19A0006A189900D11754
:10616000910040178B00B516840031167E00B315E0
:1061700079003A157300C7146F0058146A00EE13C3
:1061800066008813630025135E00C7125B006C1263
:10619000570015125400C111510070114F00211108
:1061A0004B00D61049008D104700461044000210E5
:1061B0004200C00F4000800F3E00420F3C00060F1F
:1061C0003B00CB0E3800930E37005C0E3500270ED7
:1061D0003400F30D3200C10D3100900D3000600D20
:1061E0002E00320D2D00050D2C00D90C2B00AE0C0D
:1061F0002900850C29005C0C2700350C27000E0CAB
:106200002600E80B2400C40B2400A00B23007D0B08
:1062100023005A0B2100390B2100180B2000F80A2B
:106220001F00D90A1E00BB0A1E009D0A1D00800A1D
:106230001D00630A1C00470A1B002C0A1B00110AE0
:106240001A00F7091A00DD091900C4091900AB0981
:106250001900920917007B091800630917004C09FF
:10626000160036091600200916000A091500F5085F
:106270001500E0081400CC081400B8081400A408A5
:106280001400900813007D0812006B0813005808D2
:1062900012004608120034081100230811001208E9
:1062A000110001081100F0071000E0071000D007EE
:1062B0001000C0071000B0070F00A10710009107E1
:1062C0000E0083070F0074070F0065070E005707C5
:1062D0000E0049070E003B070D002E070E00200799
:1062E0000D0013070D0006070D00F9060C00ED0662
:1062F0000D00E0060C00D4060C00C8060C00BC061D
:106300000C00B0060C00A4060B0099060C008D06CC
:106310000B0082060B0077060B006C060B00610673
:106320000A0057060B004C060A0042060A0038060F
:106330000A002E060A0024060A001A060A001006A1
:10634000090007060A00FD050900F4050900EB0530
:106350000900E2050900D9050900D0050900C705B3
:106360000900BE050900B5050800AD050800A50532
:1063700009009C050800940508008C0508008405A8
:1063800008007C050800740508006C050700650519
:1063900008005D050700560508004E050700470583
:1063A00007004005080038050700310507002A05E9
:1063B0000700230507001C050600160507000F054A
:1063C00007000805060002050700FB040600F504A7
:1063D0000700EE040600E8040600E2040700DB0400
:1063E0000600D5040600CF040600C9040600C30455
:1063F0000600BD040600B7040600B1040500AC04A5
:106400000600A6040600A00405009B0406009504EF
:106410000500900406008A04050085040500800438
:1064200006007A04050075040500700405006B047D
:10643000050066040500610405005C0405005704BE
:106440000500520405004D040500480405004304FE
:1064500005003E0404003A0405003504050030043C
:1064600004002C04050027040400230405001E0476
:1064700004001A04040016040500110404000D04AD
:106480000400090405000404040000040400FC03E3
:106490000400F8030400F4030400F0030400EC0318
:1064A0000400E8030400E4030400E0030400DC0348
:1064B0000400D8030400D4030400D0030400CC0378
:1064C0000400C8030300C503030024F404D9201BFF
:1064D000C40C5C0E9804C4095F0265077101F405E1
:1064E000F900FB04B30048048700C10369005803A6
:1064F000550003034500BE023A00840231005302F6
:106500002A002902250004022000E4011C00C80121
:106510001900AF01170098011400840113007101E4
:1065200010006101100051010E0043010D00360101
:106530000B002B010B0020010B00150109000C01C1
:10654000090003010800FB000800F3000800EB004D
:106550000700E4000600DE000600D8000600D200B6
:106560000600CC000500C7000500C2000500BD0004
:106570000400B9000400B5000400B1000400AD003F
:106580000400A9000400A5000300A20003009F006E
:1065900004009B0003009800030095000200930094
:1065A0000300900003008D0002008B0003008800B0
:1065B00002008600020084000300810002007F00C8
:1065C00002007D0002007B000200790002007700DB
:1065D00001007600020074000200720001007100E8
:1065E00002006F0002006D0001006C0002006A00F2
:1065F00001006900020067000100660001006500FB
:1066000001006400020062000100610001006000FE
:1066100001005F0002005D0001005C0001005B0002
:1066200001005A0001005900010058000100570004
:106630000100560001005500010054000100530004
:106640000000530001005200010051000100500001
:1066500001004F0001004E0000004E0001004D00FF
:1066600001004C0001004B0000004B0001004A00FB
:1066700001004900010048000000480001004700F7
:1066800001004600000046000100450000004500F2
:1066900001004400010043000000430001004200EB
:1066A00000004200010041000000410001004000E4
:1066B00001003F0000003F0001003E0000003E00DE
:1066C00001003D0000003D0001003C0000003C00D6
:1066D00000003C0001003B0000003B0001003A00CC
:1066E00000003A00010039000000390001003800C4
:1066F00000003800000038000100370000003700BB
:1067000001003600000036000000360001003500B0
:1067100000003500000035000100340000003400A6
:10672000000034000100330000003300000033009B
:106730000100320000003200000032000100310090
:106740000000310000003100010030000000300086
:106750000000300001002F0000002F0000002F007B
:1067600000002F0001002E0000002E0000002E006F
:1067700001002D0000002D0000002D0000002D0064
:1067800001002C0000002C0000002C0000002C0058
:1067900001002B0000002B0000002B0000002B004C
:1067A00001002A0000002A0000002A0000002A0040
:1067B0000100290000002900000029000000290034
:1067C0000000290001002800000028000000280027
:1067D000000028000000280001002700000027001A
:1067E000000027000000270000002700010026000D
:1067F0000000260000002600000026000000260001
:1068000001002500000025000000250000002500F3
:1068100000002500000025000100240000002400E5
:1068200000002400000024000000240001002300D8
:1068300000002300000023000000230000002300CC
:1068400000002300000023000100220000002200BD
:1068500000002200000022000000220000002200B0
:1068600001002100000021000000210000002100A3
:106870000000210000002100000021000100200094
:106880000000200000002000000020000000200088
:1068900000002000000020000000200001001F0078
:1068A00000001F0000001F0000001F0000001F006C
:1068B00000001F0000001F0001001E0000001E005D
:1068C00000001E0000001E0000001000C9021001A0
:1068D0002C014001220170011801B0010E01F001EC
:1068E00004015002FA00B002F0003003E600D003C9
:1068F000DC009004D2007005C800A006BE000008AD
:10690000B400B009AA00D00BA000600E9600601180
:106910008C000015820020197800C01D6E00A02296
:106920006400B0275A00902C500000314600E0343B
:106930003C0010383200903A2800603C1E00A03D18
:106940001400803E0A00203F000070012C019001DD
:106950002701B0012201C0011D01F0011801100240
:10696000130130020E016002090190020401C0020D
:10697000FF000003FA004003F5008003F000D0039D
:10698000EB002004E6007004E100E004DC004005B8
:10699000D700C005D2004006CD00D006C800800751
:1069A000C3003008BE00F008B900C009B400B00A46
:1069B000AF00B00BAA00D00CA500000EA000500F35
:1069C0009B00C01096005012910000148C00C0155E
:1069D0008700B0178200B0197D00D01B7800001E20
:1069E000730040206E0090226900F024640040276C
:1069F0005F0090295A00E02B5500102E50002030E7
:106A00004B0010324600E033410090353C00103717
:106A1000370070383200A0392D00B03A2800A03B72
:106A20002300603C1E00103D1900903D1400103EF4
:106A30000F00703E0A00C03E0500003F00009013AA
:106A40007D00B0157800F0177300601A6E00F01C1E
:106A50006900A01F640050225F0020255A00E02733
:106A60005500902A5000202D4B00A02F4600F031F9
:106A7000410010343C00F0353700A0373200203997
:106A80002D00603A2800703B2300603C1E00203D32
:106A90001900C03D1400403E0F00A03E0A00F03E29
:106AA0000500403F0000703FFBFF903FF6FFB03F06
:106AB000F1FFC03FECFFD03FE7FFE03FE2FFF03FD8
:106AC000DDFFF03FD8FF20484F54454E4420544846
:106AD00045524D414C2052554E4157415900204896
:106AE00045415442454420544845524D414C205262
:106AF000554E4157415900544845524D414C205242
:106B0000554E415741590042454420544845524D45
:106B1000414C2052554E415741590020544845524E
:106B20004D414C2052554E4157415920282050523A
:106B3000454845415420484F54454E44290020546F
:106B40004845524D414C2052554E415741592028FD
:106B500020505245484541542048454154424544FF
:106B6000290050524548454154204552524F520049
:106B70004245442050524548454154204552524FC9
:106B800052004572723A204D415854454D50003ADA
:106B900020457874727564657220737769746368D0
:106BA0006564206F66662E204D415854454D502037
:106BB0007472696767657265642021004572723A74
:106BC000204D415854454D50204245440054656D78
:106BD00070657261747572652068656174656420A2
:106BE000626564207377697463686564206F6666A4
:106BF0002E204D415854454D502074726967676589
:106C00007265642021004572723A204D494E544508
:106C10004D50204245440054656D70657261747535
:106C200072652068656174656420626564207377AD
:106C3000697463686564206F66662E204D494E5402
:106C4000454D502074726967676572656420210044
:106C50004572723A204D494E54454D50003A2045F8
:106C6000787472756465722073776974636865649B
:106C7000206F66662E204D494E54454D502074724B
:106C8000696767657265642021004D3730320045C1
:106C900078747275646572006D6D0000590058005B
:106CA000580059005A00FFFF506C656173652077EA
:106CB00061697400FFFF4175746F6C6F6164696E88
:106CC000672066696C616D656E742069732061630D
:106CD000746976652C206A7573742070726573739D
:106CE00020746865206B6E6F6220616E6420696E2F
:106CF000736572742066696C616D656E742E2E2EDC
:106D000000FFFF546F74616C2066696C616D656E85
:106D10007400FFFF546F74616C207072696E742090
:106D200074696D6500FFFF46696C616D656E742066
:106D30007573656400FFFF5072696E742074696D2D
:106D40006500FFFF592064697374616E6365206696
:106D5000726F6D206D696E00FFFF4C65667400FFF9
:106D6000FF526967687400FFFF4D65617375726556
:106D70006420736B657700FFFF536C69676874204C
:106D8000736B657700FFFF53657665726520736BE3
:106D9000657700FFFF5B303B305D20706F696E747C
:106DA000206F666673657400FFFF41646A757374D3
:106DB000696E67205A00FFFF526573657400FFFF1C
:106DC000526561722073696465205B756D5D00FFBB
:106DD000FF526561722073696465205B756D5D00AB
:106DE000FFFF46726F6E7420736964655B756D5D3D
:106DF00000FFFF46726F6E7420736964655B756D8A
:106E00005D00FFFF526967687420736964655B7594
:106E10006D5D00FFFF526967687420736964655B8C
:106E2000756D5D00FFFF4C656674207369646520B5
:106E30005B756D5D00FFFF4C65667420736964656A
:106E4000205B756D5D001B5B324A2553203A1B5B4E
:106E5000313B394825382E3266206D0A2553203AB9
:106E60000A25376C6464203A253268686468203AE1
:106E7000253032686864206D001B5B324A25533A26
:106E80001B5B313B364825382E32666D200A255370
:106E9000203A1B5B333B384825326468202530326A
:106EA000646D20253032640025362E32666D6D000B
:106EB0004E2F41001B5B303B304825533A0A255387
:106EC0000A25533A0A25533A001B5B303B313548BB
:106ED0004E2F41001B5B303B31354825342E326646
:106EE00001001B5B303B304825533A0A25530A25E5
:106EF000533A202025352E3266010A25533A2020A8
:106F000025352E32660100FFFF5072696E742061D4
:106F1000626F7274656400FFFF53746F702070724B
:106F2000696E7400FFFF46696C6520696E636F6D62
:106F3000706C6574652E20436F6E74696E75652084
:106F4000616E797761793F00FFFF5072696E74203E
:106F500066726F6D20534400FFFF4D61696E00FF44
:106F6000FF20205B6F6666004D3234004D323320C7
:106F7000257300052E2E00FFFFFFFF3F3F00506FDF
:106F80006C736B69004974616C69616E6F00457365
:106F900070616E6F6C00446575747363680043655F
:106FA0007374696E6100456E676C6973680045456E
:106FB00050524F4D204572726F7200486172646387
:106FC0006F6465642044656661756C7420536574F4
:106FD00074696E6773204C6F6164656400FFFF45E0
:106FE0007874727564657200FFFF4D6F7665205A84
:106FF00000FFFF4D6F7665205900FFFF4D6F7665EE
:10700000205800FFFF1B5B324A43726173682064A3
:107010006574656374696F6E2063616E1B5B313BE1
:1070200030486265207475726E6564206F6E206FE3
:107030006E6C7920696E1B5B323B30484E6F726D0F
:10704000616C206D6F646500FFFF1B5B324A574126
:10705000524E494E473A1B5B313B30484372617395
:107060006820646574656374696F6E1B5B323B30C6
:107070004864697361626C656420696E1B5B333BB5
:107080003048537465616C7468206D6F646500FFEF
:10709000FF4175746F6C6F6164696E672066696C1F
:1070A000616D656E7420617661696C61626C6520EA
:1070B0006F6E6C79207768656E2066696C616D65AE
:1070C0006E742073656E736F7220697320747572AD
:1070D0006E6564206F6E2E2E2E00FFFF4552524FBC
:1070E000523A2046696C616D656E742073656E73EB
:1070F0006F72206973206E6F7420726573706F6E8B
:1071000064696E672C20706C6561736520636865C7
:10711000636B20636F6E6E656374696F6E2E00FF24
:10712000FF43616C69627261746500FFFF506C65BA
:10713000617365206C6F616420504C412066696CFE
:10714000616D656E742066697273742E00FFFF496D
:107150007320504C412066696C616D656E74206CC3
:107160006F616465643F00FFFF506C65617365206B
:107170006C6F616420504C412066696C616D656E76
:107180007420616E64207468656E20726573756D1D
:10719000652057697A617264206279207265626F36
:1071A0006F74696E6720746865207072696E7465AB
:1071B000722E00FFFF506C65617365206368656324
:1071C0006B206F75722068616E64626F6F6B2061F7
:1071D0006E6420666978207468652070726F626CD6
:1071E000656D2E205468656E20726573756D65201F
:1071F0007468652057697A617264206279207265CB
:10720000626F6F74696E6720746865207072696E52
:107210007465722E00FFFF416C6C20697320646FEF
:107220006E652E204861707079207072696E746985
:107230006E672100FFFF596F752063616E20616CDE
:107240007761797320726573756D65207468652048
:1072500057697A6172642066726F6D2043616C6950
:1072600062726174696F6E202D3E2057697A617277
:10727000642E00FFFF506C6561736520636C65616F
:107280006E206865617462656420616E6420746854
:10729000656E20707265737320746865206B6E6F05
:1072A000622E00FFFF446F20796F752077616E7446
:1072B00020746F20726570656174206C6173742036
:1072C0007374657020746F20726561646A7573747D
:1072D0002064697374616E636520626574776565A7
:1072E0006E206E6F7A7A6C6520616E6420686561CD
:1072F000746265643F00FFFF492077696C6C2073FE
:107300007461727420746F207072696E74206C697D
:107310006E6520616E6420796F752077696C6C20D2
:107320006772616475616C6C79206C6F776572202F
:10733000746865206E6F7A7A6C6520627920726F4E
:10734000746174696E6720746865206B6E6F622C5F
:1073500020756E74696C20796F7520726561636841
:10736000206F7074696D616C206865696768742E40
:1073700020436865636B2074686520706963747569
:1073800072657320696E206F75722068616E646229
:107390006F6F6B20696E2063686170746572204343
:1073A000616C6962726174696F6E2E00FFFF4E6FCF
:1073B0007720492077696C6C2063616C6962726127
:1073C00074652064697374616E63652062657477A7
:1073D00065656E20746970206F6620746865206E24
:1073E0006F7A7A6C6520616E64206865617462658D
:1073F0006420737572666163652E00FFFF49732018
:10740000697420504C412066696C616D656E743FF3
:1074100000FFFF4C6F6164696E672066696C616D87
:10742000656E7400FFFF506C6561736520696E7353
:1074300065727420504C412066696C616D656E7494
:1074400020746F2074686520657874727564657245
:107450002C207468656E207072657373206B6E6F7C
:107460006220746F206C6F61642069742E00FFFFCE
:1074700050726568656174696E67206E6F7A7A6CA8
:10748000652E20506C6561736520776169742E00EC
:10749000FFFF4E6F7720492077696C6C2070726512
:1074A00068656174206E6F7A7A6C6520666F7220F1
:1074B000504C412E00FFFF49732066696C616D6579
:1074C0006E74206C6F616465643F00FFFF49207734
:1074D000696C6C2072756E207A2063616C696272CF
:1074E0006174696F6E206E6F772E00FFFF49207701
:1074F000696C6C2072756E2078797A2063616C6992
:1075000062726174696F6E206E6F772E20497420ED
:1075100077696C6C2074616B6520617070726F7834
:107520002E203132206D696E732E00FFFF46697286
:1075300073742C20492077696C6C2072756E2074EE
:1075400068652073656C667465737420746F20635E
:107550006865636B206D6F737420636F6D6D6F6E04
:1075600020617373656D626C792070726F626C65F7
:107570006D732E00FFFF48692C204920616D207932
:107580006F7572204F726967696E616C20507275F9
:107590007361206933207072696E7465722E205792
:1075A0006F756C6420796F75206C696B65206D65F3
:1075B00020746F20677569646520796F7520746821
:1075C000726F7567682074686520736574757020C4
:1075D00070726F636573733F00473830004D343508
:1075E000205A004737360053746174653A20256489
:1075F0000A00436F6E74696E756520776974682040
:10760000616E6F7468657220626F7764656E3F00AB
:1076100025002020202020200020202020202000C5
:1076200045524153494E4720616C6C20646174613E
:1076300000466163746F727920524553455400458A
:107640004E41424C45440A0044495341424C454452
:107650000A004653656E736F72200000007F43007E
:107660008054430000524300000000000080C09A94
:1076700099193E00000000000080C09A99193E0050
:1076800000A0400000A040000000402533642073AB
:107690007465703D253264206D73636E743D2534CE
:1076A000640A00504154393132355F696E69743A69
:1076B00025640A0025533A20256C640A25530A00E4
:1076C000004B494C4C3A2025640A00FFFF52657379
:1076D000656E6400FFFF48656174696E67206469C8
:1076E0007361626C65642062792073616665747988
:1076F0002074696D65722E00FFFF4B494C4C454468
:107700002E2000FFFF5072696E7465722068616CF4
:107710007465642E206B696C6C28292063616C6C25
:1077200065642100FFFF4D32323120496E76616C75
:1077300069642065787472756465722000FFFF4D7E
:1077400032313820496E76616C69642065787472D4
:10775000756465722000FFFF4D31303920496E7627
:10776000616C69642065787472756465722000FFCD
:10777000FF4D31303520496E76616C696420657843
:107780007472756465722000FFFF4D3130342049FA
:107790006E76616C696420657874727564657220B8
:1077A000004D37303100FFFF52756E6E696E6720F5
:1077B00057697A6172642077696C6C2064656C65C6
:1077C00074652063757272656E742063616C6962A2
:1077D000726174696F6E20726573756C7473206169
:1077E0006E642073746172742066726F6D207468A9
:1077F0006520626567696E6E696E672E20436F6EE5
:1078000074696E75653F00FFFF54656D702E2063CF
:10781000616C6962726174696F6E00FFFF5265731B
:1078200065742058595A2063616C6962722E00FF9A
:10783000FF5049442063616C6962726174696F6EC4
:1078400000FFFF426564206C6576656C20636F7293
:107850007265637400FFFF4D6573682042656420A4
:107860004C6576656C696E6700FFFF43616C696209
:1078700072617465205A00FFFF43616C6962726136
:1078800074652058595A00FFFF53656C6674657320
:107890007420202020202020202000FFFF46697235
:1078A0007374206C617965722063616C2E00FFFF38
:1078B00057697A617264004D3435004D34340047A5
:1078C000323820570043686F6F736520636F6C6FA9
:1078D000723A004572723A205052494E5420464145
:1078E0004E204552524F52005072696E74206661AC
:1078F0006E207370656564206973206C6F776572A4
:10790000207468656E2065787065637465640045F1
:1079100072723A20455854522E2046414E2045520C
:10792000524F520045787472756465722066616EBC
:10793000207370656564206973206C6F77657220B1
:107940007468656E206578706563746564002F2FB8
:1079500020616374696F6E3A706175736500FFFF33
:1079600046696C616D656E742065787472756469C2
:107970006E672026207769746820636F7272656372
:107980007420636F6C6F723F00FFFF4E6F00FFFF4C
:1079900059657300FFFF4E6F74207370696E6E69D6
:1079A0006E6700FFFF5370696E6E696E6700FFFFC0
:1079B0004C65667420686F74656E642066616E3F06
:1079C00000FFFF46726F6E74207072696E742066DD
:1079D000616E3F00FFFF46616E2074657374003E68
:1079E000003E0020003E003E00200000E4018E0129
:1079F00011241FBECFEFD1E2DEBFCDBF00E00CBF30
:107A000017E0A0E0B2E0E2E5F4EB03E00BBF02C058
:107A100007900D92AE33B107D9F729E1AEE3B7E095
:107A200001C01D92AF3FB207E1F71CE3C7EFDCE3F3
:107A300000E006C021970109802FFE010F9403D9B1
:107A4000C63FD10780E00807A9F70F9421B10D9434
:107A500018DA0C9400002F923F924F925F926F922F
:107A60007F928F929F92AF92BF92CF92DF92EF92CE
:107A7000FF920F931F93CF93DF93CDB7DEB7C95813
:107A8000D1090FB6F894DEBF0FBECDBF8091B60FFF
:107A90009091B70F892B11F40C94F08282E090E062
:107AA0009093AE028093AD028DEA93E00F94D8815B
:107AB0008823B1F08091780E9091790E6AE270E09F
:107AC00005960F9466D9009711F0DC011C92809105
:107AD000780E9091790E05960F94D5220C940D781E
:107AE0000091A5111091A611F801E554F04F7F0106
:107AF00046E050E062ED72E1CF010F94EACF892BAE
:107B000009F03FC182EB93E00F94D881882309F4F8
:107B1000E9C08FE096E00F94D881182F86EE95E0AB
:107B20000F94D881811112600F947CA680913E073A
:107B300001E0080F00933E078823D9F080914A1591
:107B4000882379F048EC5FEA60E070E08AE495E130
:107B50000E9466A3882329F010924A1510923E07CE
:107B600015C0033031F410924A1510923E07D12C03
:107B70000FC00F94DD1C60934B1570934C158093D0
:107B80004D1590934E1581E080934A15DD24D394D2
:107B900081E00F9475250E9462DB82E00F94E1235F
:107BA00010FF15C086E69FE00F9497D361E0680F41
:107BB00086E69FE00F94A9D385E09FE00F94A4D3BD
:107BC000BC016F5F7F4F85E09FE00F94C3D311FF2F
:107BD00015C088E69FE00F9497D361E0680F88E6B0
:107BE0009FE00F94A9D383E09FE00F94A4D3BC013E
:107BF0006F5F7F4F83E09FE00F94C3D381E00F94CA
:107C0000752582E00F94E1238DE696E00F94098AB2
:107C10000F94C02281E08F931F92812C912C5401EC
:107C2000C12CE12CF12C870121E040E050E0BA01A9
:107C30000F946EA80F947CA60F900F90DD2039F062
:107C400061E084E190E10E9414A20C940D7800910F
:107C50007A0E10E0000F111F0258114FD8016D91DC
:107C60007C91072E000C880B990B0F9498D1609390
:107C7000D30E7093D40E8093D50E9093D60EF80148
:107C8000118210828DE496E00F94098A40E060E052
:107C90000F94144E182F81E00F9475251123D9F0FD
:107CA00061EC73E0CE0101960F947AD983ED9EE0EA
:107CB0000F948522BC01CE0101960F945BD960E040
:107CC000CE0101960E9414A261E086E090E10E943C
:107CD00014A20C940D7861E089EF9FE00E9414A239
:107CE0000C940D7888EC93E00F94D881882379F078
:107CF00080919507882331F060E070E080E89FE391
:107D00000E9425B381E0809311020C940D7886EDDA
:107D100093E00F94D881882311F40C940D7881E0BE
:107D2000809311028091B708811104C00F94908054
:107D30000C940D78813011F00C940D78E8EEFFE092
:107D400084918F01882339F00F9452850F5F1F4F64
:107D5000F8018491F7CF8AE00F9452858CE29AE380
:107D60000F94098A8C01F8018491882329F00F94DB
:107D700052850F5F1F4FF7CF8AE00F9452850C9406
:107D80000D7844E050E06DEC72E1C7010F94EACF4A
:107D9000892B09F040C098012154304F79014AE005
:107DA00050E062EC72E1C9010F94EACF4AE050E082
:107DB000892B61F460E070E0C8018753904F0F9405
:107DC000A6CD83E00F949B300C940D7867EB72E1A5
:107DD000C7010F94EACF892B11F00C940D784AE07B
:107DE00050E060E070E0C8018753904F0F94A6CD3B
:107DF00040E051E000906F0702C0569547950A9405
:107E0000E2F7842F880F880F8150682383E00F9456
:107E100089320C940D7883EE93E00F94D8818823F7
:107E200009F4A7C189EE93E00F94D881882391F0DB
:107E30008091C00E882311F40C940D780F94DD1CF2
:107E4000609360157093611580936215909363152C
:107E50000C940D788EEE93E00F94D881882391F0E6
:107E6000809182188F93809181188F938CE19BE091
:107E70009F938F930F949CD00F900F900F900F9023
